{
  "contractName": "RBD",
  "abi": [
    {
      "inputs": [
        {
          "internalType": "address",
          "name": "manager",
          "type": "address"
        }
      ],
      "stateMutability": "nonpayable",
      "type": "constructor"
    },
    {
      "anonymous": false,
      "inputs": [
        {
          "indexed": true,
          "internalType": "address",
          "name": "Admin",
          "type": "address"
        },
        {
          "indexed": true,
          "internalType": "address",
          "name": "newAdmin",
          "type": "address"
        }
      ],
      "name": "AdminChange",
      "type": "event"
    },
    {
      "anonymous": false,
      "inputs": [
        {
          "indexed": true,
          "internalType": "address",
          "name": "owner",
          "type": "address"
        },
        {
          "indexed": true,
          "internalType": "address",
          "name": "spender",
          "type": "address"
        },
        {
          "indexed": false,
          "internalType": "uint256",
          "name": "value",
          "type": "uint256"
        }
      ],
      "name": "Approval",
      "type": "event"
    },
    {
      "anonymous": false,
      "inputs": [
        {
          "indexed": true,
          "internalType": "address",
          "name": "from",
          "type": "address"
        },
        {
          "indexed": true,
          "internalType": "address",
          "name": "to",
          "type": "address"
        },
        {
          "indexed": false,
          "internalType": "uint256",
          "name": "value",
          "type": "uint256"
        }
      ],
      "name": "Transfer",
      "type": "event"
    },
    {
      "inputs": [],
      "name": "admin",
      "outputs": [
        {
          "internalType": "address",
          "name": "",
          "type": "address"
        }
      ],
      "stateMutability": "view",
      "type": "function"
    },
    {
      "inputs": [
        {
          "internalType": "address",
          "name": "owner",
          "type": "address"
        },
        {
          "internalType": "address",
          "name": "spender",
          "type": "address"
        }
      ],
      "name": "allowance",
      "outputs": [
        {
          "internalType": "uint256",
          "name": "",
          "type": "uint256"
        }
      ],
      "stateMutability": "view",
      "type": "function"
    },
    {
      "inputs": [
        {
          "internalType": "address",
          "name": "spender",
          "type": "address"
        },
        {
          "internalType": "uint256",
          "name": "amount",
          "type": "uint256"
        }
      ],
      "name": "approve",
      "outputs": [
        {
          "internalType": "bool",
          "name": "",
          "type": "bool"
        }
      ],
      "stateMutability": "nonpayable",
      "type": "function"
    },
    {
      "inputs": [
        {
          "internalType": "address",
          "name": "account",
          "type": "address"
        }
      ],
      "name": "balanceOf",
      "outputs": [
        {
          "internalType": "uint256",
          "name": "",
          "type": "uint256"
        }
      ],
      "stateMutability": "view",
      "type": "function"
    },
    {
      "inputs": [],
      "name": "decimals",
      "outputs": [
        {
          "internalType": "uint8",
          "name": "",
          "type": "uint8"
        }
      ],
      "stateMutability": "view",
      "type": "function"
    },
    {
      "inputs": [
        {
          "internalType": "address",
          "name": "spender",
          "type": "address"
        },
        {
          "internalType": "uint256",
          "name": "subtractedValue",
          "type": "uint256"
        }
      ],
      "name": "decreaseAllowance",
      "outputs": [
        {
          "internalType": "bool",
          "name": "",
          "type": "bool"
        }
      ],
      "stateMutability": "nonpayable",
      "type": "function"
    },
    {
      "inputs": [
        {
          "internalType": "address",
          "name": "spender",
          "type": "address"
        },
        {
          "internalType": "uint256",
          "name": "addedValue",
          "type": "uint256"
        }
      ],
      "name": "increaseAllowance",
      "outputs": [
        {
          "internalType": "bool",
          "name": "",
          "type": "bool"
        }
      ],
      "stateMutability": "nonpayable",
      "type": "function"
    },
    {
      "inputs": [],
      "name": "name",
      "outputs": [
        {
          "internalType": "string",
          "name": "",
          "type": "string"
        }
      ],
      "stateMutability": "view",
      "type": "function"
    },
    {
      "inputs": [],
      "name": "symbol",
      "outputs": [
        {
          "internalType": "string",
          "name": "",
          "type": "string"
        }
      ],
      "stateMutability": "view",
      "type": "function"
    },
    {
      "inputs": [],
      "name": "totalSupply",
      "outputs": [
        {
          "internalType": "uint256",
          "name": "",
          "type": "uint256"
        }
      ],
      "stateMutability": "view",
      "type": "function"
    },
    {
      "inputs": [
        {
          "internalType": "address",
          "name": "recipient",
          "type": "address"
        },
        {
          "internalType": "uint256",
          "name": "amount",
          "type": "uint256"
        }
      ],
      "name": "transfer",
      "outputs": [
        {
          "internalType": "bool",
          "name": "",
          "type": "bool"
        }
      ],
      "stateMutability": "nonpayable",
      "type": "function"
    },
    {
      "inputs": [
        {
          "internalType": "address",
          "name": "sender",
          "type": "address"
        },
        {
          "internalType": "address",
          "name": "recipient",
          "type": "address"
        },
        {
          "internalType": "uint256",
          "name": "amount",
          "type": "uint256"
        }
      ],
      "name": "transferFrom",
      "outputs": [
        {
          "internalType": "bool",
          "name": "",
          "type": "bool"
        }
      ],
      "stateMutability": "nonpayable",
      "type": "function"
    },
    {
      "inputs": [
        {
          "internalType": "address",
          "name": "manager",
          "type": "address"
        }
      ],
      "name": "changeOwner",
      "outputs": [],
      "stateMutability": "nonpayable",
      "type": "function"
    },
    {
      "inputs": [
        {
          "internalType": "address",
          "name": "account",
          "type": "address"
        },
        {
          "internalType": "uint256",
          "name": "amount",
          "type": "uint256"
        }
      ],
      "name": "burn",
      "outputs": [],
      "stateMutability": "nonpayable",
      "type": "function"
    }
  ],
  "bytecode": "0x60806040523480156200001157600080fd5b5060405162000fb738038062000fb7833981016040819052620000349162000263565b6040518060400160405280600f81526020016e14985a5b989bddc8111a585b5bdb99608a1b8152506040518060400160405280600381526020016214909160ea1b815250816003908051906020019062000090929190620001bd565b508051620000a6906004906020840190620001bd565b5050600580546001600160a01b0319166001600160a01b03841617905550620000dd816c01431e0fae6d7217caa0000000620000e4565b5062000335565b6001600160a01b038216620001165760405162461bcd60e51b81526004016200010d9062000293565b60405180910390fd5b6200012460008383620001b8565b8060026000828254620001389190620002d3565b90915550506001600160a01b0382166000908152602081905260408120805483929062000167908490620002d3565b90915550506040516001600160a01b038316906000907fddf252ad1be2c89b69c2b068fc378daa952ba7f163c4a11628f55a4df523b3ef90620001ac908590620002ca565b60405180910390a35050565b505050565b828054620001cb90620002f8565b90600052602060002090601f016020900481019282620001ef57600085556200023a565b82601f106200020a57805160ff19168380011785556200023a565b828001600101855582156200023a579182015b828111156200023a5782518255916020019190600101906200021d565b50620002489291506200024c565b5090565b5b808211156200024857600081556001016200024d565b60006020828403121562000275578081fd5b81516001600160a01b03811681146200028c578182fd5b9392505050565b6020808252601f908201527f45524332303a206d696e7420746f20746865207a65726f206164647265737300604082015260600190565b90815260200190565b60008219821115620002f357634e487b7160e01b81526011600452602481fd5b500190565b6002810460018216806200030d57607f821691505b602082108114156200032f57634e487b7160e01b600052602260045260246000fd5b50919050565b610c7280620003456000396000f3fe608060405234801561001057600080fd5b50600436106100ea5760003560e01c806395d89b411161008c578063a6f9dae111610066578063a6f9dae1146101c0578063a9059cbb146101d3578063dd62ed3e146101e6578063f851a440146101f9576100ea565b806395d89b41146101905780639dc29fac14610198578063a457c2d7146101ad576100ea565b806323b872dd116100c857806323b872dd14610142578063313ce56714610155578063395093511461016a57806370a082311461017d576100ea565b806306fdde03146100ef578063095ea7b31461010d57806318160ddd1461012d575b600080fd5b6100f761020e565b60405161010491906108ee565b60405180910390f35b61012061011b3660046108a6565b6102a0565b60405161010491906108e3565b6101356102bd565b6040516101049190610ba5565b61012061015036600461086b565b6102c3565b61015d610363565b6040516101049190610bae565b6101206101783660046108a6565b610368565b61013561018b366004610818565b6103b7565b6100f76103d6565b6101ab6101a63660046108a6565b6103e5565b005b6101206101bb3660046108a6565b61040a565b6101ab6101ce366004610818565b610485565b6101206101e13660046108a6565b6104e8565b6101356101f4366004610839565b6104fc565b610201610527565b60405161010491906108cf565b60606003805461021d90610beb565b80601f016020809104026020016040519081016040528092919081815260200182805461024990610beb565b80156102965780601f1061026b57610100808354040283529160200191610296565b820191906000526020600020905b81548152906001019060200180831161027957829003601f168201915b5050505050905090565b60006102b46102ad610536565b848461053a565b50600192915050565b60025490565b60006102d08484846105ee565b6001600160a01b0384166000908152600160205260408120816102f1610536565b6001600160a01b03166001600160a01b031681526020019081526020016000205490508281101561033d5760405162461bcd60e51b815260040161033490610a4e565b60405180910390fd5b61035885610349610536565b6103538685610bd4565b61053a565b506001949350505050565b601290565b60006102b4610375610536565b848460016000610383610536565b6001600160a01b03908116825260208083019390935260409182016000908120918b16815292529020546103539190610bbc565b6001600160a01b0381166000908152602081905260409020545b919050565b60606004805461021d90610beb565b6005546001600160a01b031633146103fc57600080fd5b6104068282610716565b5050565b60008060016000610419610536565b6001600160a01b03908116825260208083019390935260409182016000908120918816815292529020549050828110156104655760405162461bcd60e51b815260040161033490610b60565b61047b610470610536565b856103538685610bd4565b5060019392505050565b6005546001600160a01b0316331461049c57600080fd5b600580546001600160a01b0319166001600160a01b03831690811790915560405133907f38b1065e0d088f6eda3cb9f0efc7bbb9b145907ab0deb0dbfb700d2bb21599e990600090a350565b60006102b46104f5610536565b84846105ee565b6001600160a01b03918216600090815260016020908152604080832093909416825291909152205490565b6005546001600160a01b031681565b3390565b6001600160a01b0383166105605760405162461bcd60e51b815260040161033490610b1c565b6001600160a01b0382166105865760405162461bcd60e51b8152600401610334906109c6565b6001600160a01b0380841660008181526001602090815260408083209487168084529490915290819020849055517f8c5be1e5ebec7d5bd14f71427d1e84f3dd0314c0f7b2291e5b200ac8c7c3b925906105e1908590610ba5565b60405180910390a3505050565b6001600160a01b0383166106145760405162461bcd60e51b815260040161033490610ad7565b6001600160a01b03821661063a5760405162461bcd60e51b815260040161033490610941565b6106458383836107fc565b6001600160a01b0383166000908152602081905260409020548181101561067e5760405162461bcd60e51b815260040161033490610a08565b6106888282610bd4565b6001600160a01b0380861660009081526020819052604080822093909355908516815290812080548492906106be908490610bbc565b92505081905550826001600160a01b0316846001600160a01b03167fddf252ad1be2c89b69c2b068fc378daa952ba7f163c4a11628f55a4df523b3ef846040516107089190610ba5565b60405180910390a350505050565b6001600160a01b03821661073c5760405162461bcd60e51b815260040161033490610a96565b610748826000836107fc565b6001600160a01b038216600090815260208190526040902054818110156107815760405162461bcd60e51b815260040161033490610984565b61078b8282610bd4565b6001600160a01b038416600090815260208190526040812091909155600280548492906107b9908490610bd4565b90915550506040516000906001600160a01b038516907fddf252ad1be2c89b69c2b068fc378daa952ba7f163c4a11628f55a4df523b3ef906105e1908690610ba5565b505050565b80356001600160a01b03811681146103d157600080fd5b600060208284031215610829578081fd5b61083282610801565b9392505050565b6000806040838503121561084b578081fd5b61085483610801565b915061086260208401610801565b90509250929050565b60008060006060848603121561087f578081fd5b61088884610801565b925061089660208501610801565b9150604084013590509250925092565b600080604083850312156108b8578182fd5b6108c183610801565b946020939093013593505050565b6001600160a01b0391909116815260200190565b901515815260200190565b6000602080835283518082850152825b8181101561091a578581018301518582016040015282016108fe565b8181111561092b5783604083870101525b50601f01601f1916929092016040019392505050565b60208082526023908201527f45524332303a207472616e7366657220746f20746865207a65726f206164647260408201526265737360e81b606082015260800190565b60208082526022908201527f45524332303a206275726e20616d6f756e7420657863656564732062616c616e604082015261636560f01b606082015260800190565b60208082526022908201527f45524332303a20617070726f766520746f20746865207a65726f206164647265604082015261737360f01b606082015260800190565b60208082526026908201527f45524332303a207472616e7366657220616d6f756e7420657863656564732062604082015265616c616e636560d01b606082015260800190565b60208082526028908201527f45524332303a207472616e7366657220616d6f756e74206578636565647320616040820152676c6c6f77616e636560c01b606082015260800190565b60208082526021908201527f45524332303a206275726e2066726f6d20746865207a65726f206164647265736040820152607360f81b606082015260800190565b60208082526025908201527f45524332303a207472616e736665722066726f6d20746865207a65726f206164604082015264647265737360d81b606082015260800190565b60208082526024908201527f45524332303a20617070726f76652066726f6d20746865207a65726f206164646040820152637265737360e01b606082015260800190565b60208082526025908201527f45524332303a2064656372656173656420616c6c6f77616e63652062656c6f77604082015264207a65726f60d81b606082015260800190565b90815260200190565b60ff91909116815260200190565b60008219821115610bcf57610bcf610c26565b500190565b600082821015610be657610be6610c26565b500390565b600281046001821680610bff57607f821691505b60208210811415610c2057634e487b7160e01b600052602260045260246000fd5b50919050565b634e487b7160e01b600052601160045260246000fdfea2646970667358221220627b2b53403265e65d97b88117885ffd9265ab79eddb3007fdfd19c50248702b64736f6c63430008000033",
  "immutableReferences": {},
  "source": "// SPDX-License-Identifier: MIT\r\npragma solidity ^0.8.0;\r\n\r\nimport \"@openzeppelin/contracts/token/ERC20/ERC20.sol\";\r\nimport \"../ref/CoreRef.sol\";\r\n\r\ncontract RBD is ERC20{\r\n    address public admin;\r\n    event AdminChange(address indexed Admin, address indexed newAdmin);\r\n    constructor(address manager)public ERC20(\"Rainbow Diamond\", \"RBD\"){\r\n         admin = manager;\r\n        _mint(manager, 100_000_000_000 *10 ** 18);\r\n    }\r\n     modifier _isOwner() {\r\n        require(msg.sender == admin);\r\n        _;\r\n    }\r\n    function changeOwner(address manager) external _isOwner {\r\n        admin = manager;\r\n        emit AdminChange(msg.sender,manager);\r\n    }\r\n    function burn(address account, uint256 amount) external _isOwner{\r\n        _burn(account, amount);\r\n    }\r\n}",
  "sourcePath": "/mnt/d/caihongdao/rainbowdao/RainbowDao-protocol/contracts/token20/RBD.sol",
  "compiler": {
    "name": "solc",
    "version": "0.8.0+commit.c7dfd78e.Emscripten.clang"
  },
  "schemaVersion": "3.4.1",
  "updatedAt": "2021-09-08T02:11:02.649Z",
  "networkType": "ethereum",
  "devdoc": {
    "kind": "dev",
    "methods": {
      "allowance(address,address)": {
        "details": "See {IERC20-allowance}."
      },
      "approve(address,uint256)": {
        "details": "See {IERC20-approve}. Requirements: - `spender` cannot be the zero address."
      },
      "balanceOf(address)": {
        "details": "See {IERC20-balanceOf}."
      },
      "decimals()": {
        "details": "Returns the number of decimals used to get its user representation. For example, if `decimals` equals `2`, a balance of `505` tokens should be displayed to a user as `5,05` (`505 / 10 ** 2`). Tokens usually opt for a value of 18, imitating the relationship between Ether and Wei. This is the value {ERC20} uses, unless this function is overridden; NOTE: This information is only used for _display_ purposes: it in no way affects any of the arithmetic of the contract, including {IERC20-balanceOf} and {IERC20-transfer}."
      },
      "decreaseAllowance(address,uint256)": {
        "details": "Atomically decreases the allowance granted to `spender` by the caller. This is an alternative to {approve} that can be used as a mitigation for problems described in {IERC20-approve}. Emits an {Approval} event indicating the updated allowance. Requirements: - `spender` cannot be the zero address. - `spender` must have allowance for the caller of at least `subtractedValue`."
      },
      "increaseAllowance(address,uint256)": {
        "details": "Atomically increases the allowance granted to `spender` by the caller. This is an alternative to {approve} that can be used as a mitigation for problems described in {IERC20-approve}. Emits an {Approval} event indicating the updated allowance. Requirements: - `spender` cannot be the zero address."
      },
      "name()": {
        "details": "Returns the name of the token."
      },
      "symbol()": {
        "details": "Returns the symbol of the token, usually a shorter version of the name."
      },
      "totalSupply()": {
        "details": "See {IERC20-totalSupply}."
      },
      "transfer(address,uint256)": {
        "details": "See {IERC20-transfer}. Requirements: - `recipient` cannot be the zero address. - the caller must have a balance of at least `amount`."
      },
      "transferFrom(address,address,uint256)": {
        "details": "See {IERC20-transferFrom}. Emits an {Approval} event indicating the updated allowance. This is not required by the EIP. See the note at the beginning of {ERC20}. Requirements: - `sender` and `recipient` cannot be the zero address. - `sender` must have a balance of at least `amount`. - the caller must have allowance for ``sender``'s tokens of at least `amount`."
      }
    },
    "version": 1
  },
  "userdoc": {
    "kind": "user",
    "methods": {},
    "version": 1
  }
}