{
  "contractName": "RbSeedSubscription",
  "abi": [
    {
      "inputs": [
        {
          "internalType": "address",
          "name": "seed",
          "type": "address"
        },
        {
          "internalType": "address",
          "name": "Aadmin",
          "type": "address"
        }
      ],
      "stateMutability": "nonpayable",
      "type": "constructor"
    },
    {
      "anonymous": false,
      "inputs": [
        {
          "indexed": true,
          "internalType": "address",
          "name": "Admin",
          "type": "address"
        },
        {
          "indexed": true,
          "internalType": "address",
          "name": "newAdmin",
          "type": "address"
        }
      ],
      "name": "AdminChange",
      "type": "event"
    },
    {
      "anonymous": false,
      "inputs": [
        {
          "indexed": true,
          "internalType": "address",
          "name": "Mining",
          "type": "address"
        },
        {
          "indexed": true,
          "internalType": "address",
          "name": "Admin",
          "type": "address"
        },
        {
          "indexed": true,
          "internalType": "uint256",
          "name": "value",
          "type": "uint256"
        }
      ],
      "name": "AdminTakeValue",
      "type": "event"
    },
    {
      "anonymous": false,
      "inputs": [
        {
          "indexed": true,
          "internalType": "uint256",
          "name": "time",
          "type": "uint256"
        },
        {
          "indexed": true,
          "internalType": "uint256",
          "name": "timechange",
          "type": "uint256"
        }
      ],
      "name": "LockTimeRecord",
      "type": "event"
    },
    {
      "anonymous": false,
      "inputs": [
        {
          "indexed": true,
          "internalType": "address",
          "name": "userAddress",
          "type": "address"
        },
        {
          "indexed": true,
          "internalType": "uint256",
          "name": "witch",
          "type": "uint256"
        },
        {
          "indexed": false,
          "internalType": "uint256",
          "name": "mortgageTime",
          "type": "uint256"
        },
        {
          "indexed": true,
          "internalType": "uint256",
          "name": "mortgageAmount",
          "type": "uint256"
        }
      ],
      "name": "MortgageValueAmount",
      "type": "event"
    },
    {
      "anonymous": false,
      "inputs": [
        {
          "indexed": false,
          "internalType": "address",
          "name": "user",
          "type": "address"
        },
        {
          "indexed": true,
          "internalType": "uint256",
          "name": "tokenAmount",
          "type": "uint256"
        },
        {
          "indexed": true,
          "internalType": "uint256",
          "name": "rbtSeedAmount",
          "type": "uint256"
        },
        {
          "indexed": true,
          "internalType": "address",
          "name": "tokenAddress",
          "type": "address"
        }
      ],
      "name": "PurchaseRecord",
      "type": "event"
    },
    {
      "inputs": [
        {
          "internalType": "address",
          "name": "",
          "type": "address"
        },
        {
          "internalType": "uint256",
          "name": "",
          "type": "uint256"
        }
      ],
      "name": "RbSeedSubscriptionRecord",
      "outputs": [
        {
          "internalType": "uint256",
          "name": "curRate",
          "type": "uint256"
        },
        {
          "internalType": "uint256",
          "name": "time",
          "type": "uint256"
        },
        {
          "internalType": "uint256",
          "name": "amount",
          "type": "uint256"
        }
      ],
      "stateMutability": "view",
      "type": "function"
    },
    {
      "inputs": [],
      "name": "_RBT_SEED",
      "outputs": [
        {
          "internalType": "address",
          "name": "",
          "type": "address"
        }
      ],
      "stateMutability": "view",
      "type": "function"
    },
    {
      "inputs": [],
      "name": "_Rbt",
      "outputs": [
        {
          "internalType": "address",
          "name": "",
          "type": "address"
        }
      ],
      "stateMutability": "view",
      "type": "function"
    },
    {
      "inputs": [],
      "name": "_bank_Address",
      "outputs": [
        {
          "internalType": "address",
          "name": "",
          "type": "address"
        }
      ],
      "stateMutability": "view",
      "type": "function"
    },
    {
      "inputs": [],
      "name": "_lockTime",
      "outputs": [
        {
          "internalType": "uint256",
          "name": "",
          "type": "uint256"
        }
      ],
      "stateMutability": "view",
      "type": "function"
    },
    {
      "inputs": [],
      "name": "account",
      "outputs": [
        {
          "internalType": "uint256",
          "name": "",
          "type": "uint256"
        }
      ],
      "stateMutability": "view",
      "type": "function"
    },
    {
      "inputs": [],
      "name": "admin",
      "outputs": [
        {
          "internalType": "address",
          "name": "",
          "type": "address"
        }
      ],
      "stateMutability": "view",
      "type": "function"
    },
    {
      "inputs": [],
      "name": "curRate",
      "outputs": [
        {
          "internalType": "uint256",
          "name": "",
          "type": "uint256"
        }
      ],
      "stateMutability": "view",
      "type": "function"
    },
    {
      "inputs": [],
      "name": "digOutAmount",
      "outputs": [
        {
          "internalType": "uint256",
          "name": "",
          "type": "uint256"
        }
      ],
      "stateMutability": "view",
      "type": "function"
    },
    {
      "inputs": [],
      "name": "extract",
      "outputs": [],
      "stateMutability": "nonpayable",
      "type": "function"
    },
    {
      "inputs": [
        {
          "internalType": "uint256",
          "name": "index",
          "type": "uint256"
        }
      ],
      "name": "extractOne",
      "outputs": [
        {
          "internalType": "uint256",
          "name": "",
          "type": "uint256"
        }
      ],
      "stateMutability": "nonpayable",
      "type": "function"
    },
    {
      "inputs": [],
      "name": "getRbtRecord",
      "outputs": [
        {
          "internalType": "uint256",
          "name": "",
          "type": "uint256"
        },
        {
          "internalType": "uint256",
          "name": "",
          "type": "uint256"
        },
        {
          "internalType": "uint256",
          "name": "",
          "type": "uint256"
        }
      ],
      "stateMutability": "view",
      "type": "function"
    },
    {
      "inputs": [],
      "name": "getUserExtractable",
      "outputs": [
        {
          "internalType": "uint256",
          "name": "",
          "type": "uint256"
        }
      ],
      "stateMutability": "view",
      "type": "function"
    },
    {
      "inputs": [],
      "name": "getUserLockNum",
      "outputs": [
        {
          "internalType": "uint256",
          "name": "",
          "type": "uint256"
        }
      ],
      "stateMutability": "view",
      "type": "function"
    },
    {
      "inputs": [
        {
          "internalType": "address[]",
          "name": "tokenArr",
          "type": "address[]"
        }
      ],
      "name": "getValue",
      "outputs": [],
      "stateMutability": "nonpayable",
      "type": "function"
    },
    {
      "inputs": [],
      "name": "isSubSeedsLeftNum",
      "outputs": [
        {
          "internalType": "uint256",
          "name": "",
          "type": "uint256"
        }
      ],
      "stateMutability": "view",
      "type": "function"
    },
    {
      "inputs": [
        {
          "internalType": "address",
          "name": "",
          "type": "address"
        },
        {
          "internalType": "uint256",
          "name": "",
          "type": "uint256"
        }
      ],
      "name": "lockUpTotal",
      "outputs": [
        {
          "internalType": "uint256",
          "name": "startTime",
          "type": "uint256"
        },
        {
          "internalType": "uint256",
          "name": "endTime",
          "type": "uint256"
        },
        {
          "internalType": "uint256",
          "name": "amount",
          "type": "uint256"
        },
        {
          "internalType": "uint256",
          "name": "extracted",
          "type": "uint256"
        },
        {
          "internalType": "uint256",
          "name": "price",
          "type": "uint256"
        },
        {
          "internalType": "uint256",
          "name": "mortgage",
          "type": "uint256"
        }
      ],
      "stateMutability": "view",
      "type": "function"
    },
    {
      "inputs": [
        {
          "internalType": "address",
          "name": "userAddress",
          "type": "address"
        }
      ],
      "name": "lockUpTotalLength",
      "outputs": [
        {
          "internalType": "uint256",
          "name": "length",
          "type": "uint256"
        }
      ],
      "stateMutability": "view",
      "type": "function"
    },
    {
      "inputs": [
        {
          "internalType": "address",
          "name": "userAddress",
          "type": "address"
        },
        {
          "internalType": "uint256",
          "name": "witch",
          "type": "uint256"
        },
        {
          "internalType": "uint256",
          "name": "deadline",
          "type": "uint256"
        },
        {
          "internalType": "uint256",
          "name": "mAmount",
          "type": "uint256"
        }
      ],
      "name": "mortgage",
      "outputs": [],
      "stateMutability": "nonpayable",
      "type": "function"
    },
    {
      "inputs": [
        {
          "internalType": "address",
          "name": "newAdmin",
          "type": "address"
        }
      ],
      "name": "setAdmin",
      "outputs": [],
      "stateMutability": "nonpayable",
      "type": "function"
    },
    {
      "inputs": [
        {
          "internalType": "uint256",
          "name": "time",
          "type": "uint256"
        }
      ],
      "name": "setLockTime",
      "outputs": [],
      "stateMutability": "nonpayable",
      "type": "function"
    },
    {
      "inputs": [],
      "name": "source",
      "outputs": [
        {
          "internalType": "address",
          "name": "",
          "type": "address"
        }
      ],
      "stateMutability": "view",
      "type": "function"
    },
    {
      "inputs": [
        {
          "internalType": "address",
          "name": "",
          "type": "address"
        }
      ],
      "name": "tokenAllow",
      "outputs": [
        {
          "internalType": "bool",
          "name": "",
          "type": "bool"
        }
      ],
      "stateMutability": "view",
      "type": "function"
    },
    {
      "inputs": [],
      "name": "totalAmount",
      "outputs": [
        {
          "internalType": "uint256",
          "name": "",
          "type": "uint256"
        }
      ],
      "stateMutability": "view",
      "type": "function"
    },
    {
      "inputs": [],
      "name": "turnOnOff",
      "outputs": [
        {
          "internalType": "bool",
          "name": "",
          "type": "bool"
        }
      ],
      "stateMutability": "view",
      "type": "function"
    },
    {
      "inputs": [
        {
          "internalType": "address",
          "name": "",
          "type": "address"
        }
      ],
      "name": "userTotalReceived",
      "outputs": [
        {
          "internalType": "uint256",
          "name": "",
          "type": "uint256"
        }
      ],
      "stateMutability": "view",
      "type": "function"
    },
    {
      "inputs": [
        {
          "internalType": "string",
          "name": "K",
          "type": "string"
        }
      ],
      "name": "getPrice",
      "outputs": [
        {
          "internalType": "uint64",
          "name": "a",
          "type": "uint64"
        },
        {
          "internalType": "uint64",
          "name": "b",
          "type": "uint64"
        }
      ],
      "stateMutability": "view",
      "type": "function"
    },
    {
      "inputs": [
        {
          "internalType": "bool",
          "name": "turnType",
          "type": "bool"
        }
      ],
      "name": "setTurnOnOff",
      "outputs": [],
      "stateMutability": "nonpayable",
      "type": "function"
    },
    {
      "inputs": [
        {
          "internalType": "address[]",
          "name": "allowToken",
          "type": "address[]"
        }
      ],
      "name": "setTokenAllow",
      "outputs": [],
      "stateMutability": "nonpayable",
      "type": "function"
    },
    {
      "inputs": [
        {
          "internalType": "uint256",
          "name": "value",
          "type": "uint256"
        },
        {
          "internalType": "string",
          "name": "tokenName",
          "type": "string"
        },
        {
          "internalType": "address",
          "name": "token",
          "type": "address"
        }
      ],
      "name": "seedSubscription",
      "outputs": [],
      "stateMutability": "nonpayable",
      "type": "function"
    },
    {
      "inputs": [],
      "name": "getRecordsLength",
      "outputs": [
        {
          "internalType": "uint256",
          "name": "",
          "type": "uint256"
        }
      ],
      "stateMutability": "view",
      "type": "function"
    }
  ],
  "bytecode": "0x60806040526301e133806003556a18d0bf423c03d8de0000006009556064600d5569d3c21bcecceda1000000600e553480156200003b57600080fd5b506040516200211d3803806200211d8339810160408190526200005e91620000de565b600280546001600160a01b039283166001600160a01b031991821617909155600680549390921692811692909217905569d3c21bcecceda10000006008556007805490911673fceadafab14d46e20144f48824d0c09b1a03f2bc17905562000115565b80516001600160a01b0381168114620000d957600080fd5b919050565b60008060408385031215620000f1578182fd5b620000fc83620000c1565b91506200010c60208401620000c1565b90509250929050565b611ff880620001256000396000f3fe608060405234801561001057600080fd5b50600436106101e55760003560e01c806367e828bf1161010f57806391231255116100a2578063ed037df311610071578063ed037df3146103b2578063f000fc35146103ba578063f439ee7e146103cd578063f851a440146103d5576101e5565b8063912312551461035f578063ae04d45d14610372578063b8feb00c14610385578063e104f3cd146103aa576101e5565b80637d9afe90116100de5780637d9afe901461032957806383f0e4a11461033c5780638909646c1461034f5780638cb2adea14610357576101e5565b806367e828bf146102fe578063704b6c021461030657806379af25a6146103195780637bd7529014610321576101e5565b80633cf9b1b1116101875780635c2996ab116101565780635c2996ab146102d35780635dab2420146102e657806360c8f2f7146102ee57806363e341a2146102f6576101e5565b80633cf9b1b1146102755780634f97149a1461028a578063524f38891461029f5780635716164c146102c0576101e5565b80631b3e2cc9116101c35780631b3e2cc9146102305780631e83cdab14610243578063320051891461024b5780633b23ff9a14610253576101e5565b806302d15804146101ea578063105d86da146102135780631a39d8ef14610228575b600080fd5b6101fd6101f83660046118f6565b6103dd565b60405161020a9190611e22565b60405180910390f35b610226610221366004611a1f565b6103fc565b005b6101fd610442565b6101fd61023e3660046118f6565b610448565b61022661045a565b6101fd610687565b610266610261366004611910565b61068d565b60405161020a93929190611e2b565b61027d6106cf565b60405161020a9190611b65565b6102926106de565b60405161020a9190611c19565b6102b26102ad366004611a57565b6106e7565b60405161020a929190611e69565b6101fd6102ce366004611a92565b610788565b6102266102e1366004611971565b6108ac565b6101fd610a27565b6101fd610a2d565b610266610b77565b61027d610d45565b6102266103143660046118f6565b610d54565b6101fd610e04565b6101fd610e0a565b610226610337366004611ac2565b610e1d565b61029261034a3660046118f6565b611020565b61027d611035565b61027d611044565b61022661036d366004611939565b611053565b610226610380366004611a92565b6112b2565b610398610393366004611910565b61133a565b60405161020a96959493929190611e41565b6101fd61138e565b6101fd611394565b6102266103c8366004611971565b61139a565b6101fd6114ba565b61027d611639565b6001600160a01b0381166000908152600560205260409020545b919050565b6002546001600160a01b0316331461042f5760405162461bcd60e51b815260040161042690611d84565b60405180910390fd5b600f805460ff1916911515919091179055565b60095481565b60046020526000908152604090205481565b60008061046c64010000000042611f5b565b905060005b33600090815260056020526040902054811015610647573360009081526005602052604081208054839081106104b757634e487b7160e01b600052603260045260246000fd5b90600052602060002090600602016040518060c00160405290816000820154815260200160018201548152602001600282015481526020016003820154815260200160048201548152602001600582015481525050905080600001518363ffffffff1610158015610531575080602001518363ffffffff16105b156105cf57600061058060035461057484600001518763ffffffff166105579190611ef9565b61057a60056105746004896040015161164890919063ffffffff16565b9061165b565b90611648565b905060006105a98360a001516105a385606001518561166790919063ffffffff16565b90611667565b90506105b58187611673565b955080836060018181516105c99190611eae565b90525050505b80602001518363ffffffff161061063457600061060f8260a001516105a384606001516105a360056105746004896040015161164890919063ffffffff16565b905061061b8186611673565b9450808260600181815161062f9190611eae565b905250505b508061063f81611f40565b915050610471565b503360009081526004602052604081208054849290610667908490611eae565b9091555050600054610683906001600160a01b0316338461167f565b5050565b600d5481565b600c60205281600052604060002081815481106106a957600080fd5b600091825260209091206003909102018054600182015460029092015490935090915083565b6000546001600160a01b031681565b600f5460ff1681565b60075460405163fc2525ab60e01b8152600091829172c4770d3feb38ad07f879abd96619fbdeb005209163fc2525ab9161072f916001600160a01b0316908790600401611b9d565b604080518083038186803b15801561074657600080fd5b505afa15801561075a573d6000803e3d6000fd5b505050506040513d601f19601f8201168201806040525081019061077e9190611b17565b9094909350915050565b336000908152600560205260408120805442918391859081106107bb57634e487b7160e01b600052603260045260246000fd5b90600052602060002090600602016040518060c001604052908160008201548152602001600182015481526020016002820154815260200160038201548152602001600482015481526020016005820154815250509050600061084a61082d6003548585602001516105749190611ef9565b61057a60056105746004876040015161164890919063ffffffff16565b905060006108758360a001516105a385606001516105a386886040015161166790919063ffffffff16565b60608401519091506108879082611673565b60608401526000546108a3906001600160a01b0316338361167f565b95945050505050565b6002546001600160a01b031633146108d65760405162461bcd60e51b815260040161042690611d84565b6002546001600160a01b031633146109005760405162461bcd60e51b815260040161042690611c76565b60005b815181101561068357600082828151811061092e57634e487b7160e01b600052603260045260246000fd5b60200260200101516001600160a01b03166370a08231306040518263ffffffff1660e01b81526004016109619190611b65565b60206040518083038186803b15801561097957600080fd5b505afa15801561098d573d6000803e3d6000fd5b505050506040513d601f19601f820116820180604052508101906109b19190611aaa565b90506109e58383815181106109d657634e487b7160e01b600052603260045260246000fd5b6020026020010151338361167f565b6040518190339030907fdd1a0661b3afa263ceb90ee8281d080435497c1df9d5a4720acedc84efd12fe790600090a45080610a1f81611f40565b915050610903565b600e5481565b60008080610a4064010000000042611f5b565b905060005b33600090815260056020526040902054811015610b6f57336000908152600560205260408120805483908110610a8b57634e487b7160e01b600052603260045260246000fd5b90600052602060002090600602016040518060c00160405290816000820154815260200160018201548152602001600282015481526020016003820154815260200160048201548152602001600582015481525050905080600001518363ffffffff1610158015610b05575080602001518363ffffffff16105b15610b5c576000610b2b60035461057484600001518763ffffffff166105579190611ef9565b9050610b5885610b52836105a360056105746004896040015161164890919063ffffffff16565b90611673565b9450505b5080610b6781611f40565b915050610a45565b509091505090565b6000808080808080610b8e64010000000042611f5b565b905060005b33600090815260056020526040902054811015610d3857336000908152600560205260408120805483908110610bd957634e487b7160e01b600052603260045260246000fd5b90600052602060002090600602016040518060c001604052908160008201548152602001600182015481526020016002820154815260200160038201548152602001600482015481526020016005820154815250509050610c4781604001518761167390919063ffffffff16565b815190965063ffffffff841610801590610c6a575080602001518363ffffffff16105b15610ce0576000610c9060035461057484600001518763ffffffff166105579190611ef9565b9050610cb585610b528460a001516105a386606001518661166790919063ffffffff16565b9450610cdc86610b52836105a360056105746004896040015161164890919063ffffffff16565b9550505b80602001518363ffffffff1610610d2557610d2284610b528360a001516105a385606001516105a3600561057460048a6040015161164890919063ffffffff16565b93505b5080610d3081611f40565b915050610b93565b5092969195509350915050565b6007546001600160a01b031681565b6002546001600160a01b03163314610d7e5760405162461bcd60e51b815260040161042690611d84565b6002546001600160a01b03163314610da85760405162461bcd60e51b815260040161042690611d84565b6002546040516001600160a01b038084169216907f38b1065e0d088f6eda3cb9f0efc7bbb9b145907ab0deb0dbfb700d2bb21599e990600090a3600280546001600160a01b0319166001600160a01b0392909216919091179055565b60035481565b336000908152600c602052604090205490565b6001600160a01b0381166000908152600b602052604090205460ff161515600114610e5a5760405162461bcd60e51b815260040161042690611ca1565b60008311610e7a5760405162461bcd60e51b815260040161042690611cfe565b600083600854610e8a9190611ef9565b1015610ea85760405162461bcd60e51b815260040161042690611d55565b6001600160a01b038116610ece5760405162461bcd60e51b815260040161042690611cce565b600d54600090610ee490610574866103e8611648565b9050610ef28233308761176c565b600654610f09906001600160a01b0316338361167f565b600d54610f2990610f2090610574876103e8611648565b600e5490611667565b600e55600854610f399085611667565b600890815560408051606081018252600d548152426020808301918252828401898152336000908152600c8352948520805460018181018355918752929095208451600390930201918255915193810193909355516002909201919091559054610fd657600d54610fab90600a611673565b600d5569d3c21bcecceda1000000600881905560098054600090610fd0908490611ef9565b90915550505b826001600160a01b031682867f0caedce831599172dfe59db540c9743cf217772cbeb82b67f7cc1ff68039a896336040516110119190611b65565b60405180910390a45050505050565b600b6020526000908152604090205460ff1681565b6001546001600160a01b031681565b6006546001600160a01b031681565b600061106464010000000042611f5b565b63ffffffff1690506000611081848361167390919063ffffffff16565b6001600160a01b0387166000908152600560205260409020805491925090869081106110bd57634e487b7160e01b600052603260045260246000fd5b90600052602060002090600602016000015481116110ed5760405162461bcd60e51b815260040161042690611d29565b6001600160a01b038616600090815260056020526040902080548491908790811061112857634e487b7160e01b600052603260045260246000fd5b906000526020600020906006020160020154116111575760405162461bcd60e51b815260040161042690611daf565b6001600160a01b038616600090815260056020526040902080546111b59185918890811061119557634e487b7160e01b600052603260045260246000fd5b90600052602060002090600602016005015461167390919063ffffffff16565b6001600160a01b03871660009081526005602052604090208054879081106111ed57634e487b7160e01b600052603260045260246000fd5b6000918252602090912060056006909202010155600154604051634ce3696f60e11b81526001600160a01b03909116906399c6d2de9061123590339085908890600401611bf8565b600060405180830381600087803b15801561124f57600080fd5b505af1158015611263573d6000803e3d6000fd5b505050508085876001600160a01b03167f4e5002b431c48d69791c9803d8a9458ec74f7d177080e8666bccb30b3df9a256856040516112a29190611e22565b60405180910390a4505050505050565b6002546001600160a01b031633146112dc5760405162461bcd60e51b815260040161042690611d84565b6002546001600160a01b031633146113065760405162461bcd60e51b815260040161042690611d84565b6003546040518291907f330ab878145b7defb2c3a805cb0958be15256ca947060a42e7c08a0faa0f22f590600090a3600355565b6005602052816000526040600020818154811061135657600080fd5b600091825260209091206006909102018054600182015460028301546003840154600485015460059095015493965091945092909186565b60085481565b600a5481565b6002546001600160a01b031633146113c45760405162461bcd60e51b815260040161042690611d84565b600f5460ff16156113e75760405162461bcd60e51b815260040161042690611c24565b60005b815181101561068357600b600083838151811061141757634e487b7160e01b600052603260045260246000fd5b6020908102919091018101516001600160a01b031682528101919091526040016000205460ff166114a8576001600b600084848151811061146857634e487b7160e01b600052603260045260246000fd5b60200260200101516001600160a01b03166001600160a01b0316815260200190815260200160002060006101000a81548160ff0219169083151502179055505b806114b281611f40565b9150506113ea565b600080806114cd64010000000042611f5b565b905060005b33600090815260056020526040902054811015610b6f5733600090815260056020526040812080548390811061151857634e487b7160e01b600052603260045260246000fd5b90600052602060002090600602016040518060c00160405290816000820154815260200160018201548152602001600282015481526020016003820154815260200160048201548152602001600582015481525050905080600001518363ffffffff1610158015611592575080602001518363ffffffff16105b156115e15760006115b860035461057484600001518763ffffffff166105579190611ef9565b90506115dd85610b528460a001516105a386606001518661166790919063ffffffff16565b9450505b80602001518363ffffffff16106116265761162384610b528360a001516105a385606001516105a3600561057460048a6040015161164890919063ffffffff16565b93505b508061163181611f40565b9150506114d2565b6002546001600160a01b031681565b60006116548284611eda565b9392505050565b60006116548284611ec6565b60006116548284611ef9565b60006116548284611eae565b600080846001600160a01b031663a9059cbb85856040516024016116a4929190611bdf565b6040516020818303038152906040529060e01b6020820180516001600160e01b0383818316178352505050506040516116dd9190611b49565b6000604051808303816000865af19150503d806000811461171a576040519150601f19603f3d011682016040523d82523d6000602084013e61171f565b606091505b50915091508180156117495750805115806117495750808060200190518101906117499190611a3b565b6117655760405162461bcd60e51b815260040161042690611c3f565b5050505050565b600080856001600160a01b03166323b872dd86868660405160240161179393929190611b79565b6040516020818303038152906040529060e01b6020820180516001600160e01b0383818316178352505050506040516117cc9190611b49565b6000604051808303816000865af19150503d8060008114611809576040519150601f19603f3d011682016040523d82523d6000602084013e61180e565b606091505b50915091508180156118385750805115806118385750808060200190518101906118389190611a3b565b6118545760405162461bcd60e51b815260040161042690611dde565b505050505050565b80356001600160a01b03811681146103f757600080fd5b600082601f830112611883578081fd5b813567ffffffffffffffff81111561189d5761189d611f9b565b6118b0601f8201601f1916602001611e84565b8181528460208386010111156118c4578283fd5b816020850160208301379081016020019190915292915050565b805167ffffffffffffffff811681146103f757600080fd5b600060208284031215611907578081fd5b6116548261185c565b60008060408385031215611922578081fd5b61192b8361185c565b946020939093013593505050565b6000806000806080858703121561194e578182fd5b6119578561185c565b966020860135965060408601359560600135945092505050565b60006020808385031215611983578182fd5b823567ffffffffffffffff8082111561199a578384fd5b818501915085601f8301126119ad578384fd5b8135818111156119bf576119bf611f9b565b83810291506119cf848301611e84565b8181528481019084860184860187018a10156119e9578788fd5b8795505b83861015611a12576119fe8161185c565b8352600195909501949186019186016119ed565b5098975050505050505050565b600060208284031215611a30578081fd5b813561165481611fb1565b600060208284031215611a4c578081fd5b815161165481611fb1565b600060208284031215611a68578081fd5b813567ffffffffffffffff811115611a7e578182fd5b611a8a84828501611873565b949350505050565b600060208284031215611aa3578081fd5b5035919050565b600060208284031215611abb578081fd5b5051919050565b600080600060608486031215611ad6578283fd5b83359250602084013567ffffffffffffffff811115611af3578283fd5b611aff86828701611873565b925050611b0e6040850161185c565b90509250925092565b60008060408385031215611b29578182fd5b611b32836118de565b9150611b40602084016118de565b90509250929050565b60008251611b5b818460208701611f10565b9190910192915050565b6001600160a01b0391909116815260200190565b6001600160a01b039384168152919092166020820152604081019190915260600190565b600060018060a01b0384168252604060208301528251806040840152611bca816060850160208701611f10565b601f01601f1916919091016060019392505050565b6001600160a01b03929092168252602082015260400190565b6001600160a01b039390931683526020830191909152604082015260600190565b901515815260200190565b6020808252600190820152600360fc1b604082015260600190565b6020808252601f908201527f5472616e7366657248656c7065723a205452414e534645525f4641494c454400604082015260600190565b6020808252601190820152702cb7ba9030b932903737ba1030b236b4b760791b604082015260600190565b60208082526013908201527274686520746f6b656e206e6f7420616c6c6f7760681b604082015260600190565b602080825260169082015275746f6b656e206973206e6f742030206164647265737360501b604082015260600190565b60208082526011908201527034b7383aba10383934b1b29032b93937b960791b604082015260600190565b6020808252601290820152714e6f2065787472616374696f6e2074696d6560701b604082015260600190565b6020808252601590820152740a484a8a68a8a8840d2e640dcdee840cadcdeeaced605b1b604082015260600190565b6020808252601190820152703cb7ba9030b932903737ba1030b236b4b760791b604082015260600190565b60208082526015908201527420496e73756666696369656e742042616c616e636560581b604082015260600190565b60208082526024908201527f5472616e7366657248656c7065723a205452414e534645525f46524f4d5f46416040820152631253115160e21b606082015260800190565b90815260200190565b9283526020830191909152604082015260600190565b958652602086019490945260408501929092526060840152608083015260a082015260c00190565b67ffffffffffffffff92831681529116602082015260400190565b60405181810167ffffffffffffffff81118282101715611ea657611ea6611f9b565b604052919050565b60008219821115611ec157611ec1611f6f565b500190565b600082611ed557611ed5611f85565b500490565b6000816000190483118215151615611ef457611ef4611f6f565b500290565b600082821015611f0b57611f0b611f6f565b500390565b60005b83811015611f2b578181015183820152602001611f13565b83811115611f3a576000848401525b50505050565b6000600019821415611f5457611f54611f6f565b5060010190565b600082611f6a57611f6a611f85565b500690565b634e487b7160e01b600052601160045260246000fd5b634e487b7160e01b600052601260045260246000fd5b634e487b7160e01b600052604160045260246000fd5b8015158114611fbf57600080fd5b5056fea26469706673582212205f3bafd18efb4ce0cbd80ae889facc147872f197d140672db870e7f6a131794e64736f6c63430008000033",
  "immutableReferences": {},
  "source": "pragma solidity =0.8.0;\r\n\r\nimport \"@openzeppelin/contracts/utils/math/SafeMath.sol\";\r\nimport \"../lib/TransferHelper.sol\";\r\nimport \"../interface/mining/IOpenOracle.sol\";\r\nimport \"@openzeppelin/contracts/token/ERC20/IERC20.sol\";\r\nimport \"./MiningBase.sol\";\r\n\r\n//\r\ncontract RbSeedSubscription is MiningBase {\r\n    //\r\n    using SafeMath for uint;\r\n    //RBT\r\n    address public _RBT_SEED;\r\n    //\r\n    address public source;\r\n    //\r\n    uint public isSubSeedsLeftNum;\r\n    uint public totalAmount = 30000000 *10 **18;\r\n    //\r\n    uint public digOutAmount;\r\n    //\r\n    mapping(address => bool) public tokenAllow;\r\n    //\r\n    mapping(address => recordRbSeedSubscription[]) public  RbSeedSubscriptionRecord;\r\n    //\r\n    event PurchaseRecord(address user , uint indexed tokenAmount, uint indexed rbtSeedAmount, address indexed tokenAddress);\r\n    //\r\n    struct recordRbSeedSubscription {\r\n        uint curRate;//rbtseed\r\n        uint time;//\r\n        uint amount;//\r\n    }\r\n    //\r\n    constructor(\r\n        address seed,\r\n        address Aadmin\r\n    ) public {\r\n        admin = Aadmin;\r\n        _RBT_SEED = seed;\r\n        isSubSeedsLeftNum = 1000000 * 10 ** 18;\r\n        source = 0xfCEAdAFab14d46e20144F48824d0C09B1a03F2BC;\r\n\r\n    }\r\n    //1_000_000 \r\n    uint public curRate = 100;\r\n    //\r\n    uint public account = 1000000 * 10 ** 18;\r\n\r\n    //\r\n    function getPrice(string memory K) public view returns (uint64 a, uint64 b){\r\n\r\n        (a, b) = IOpenOracle(0x00c4770D3Feb38ad07f879Abd96619FBdeb00520).get(source, K);\r\n    }\r\n\r\n    bool public turnOnOff;\r\n    // \r\n    function setTurnOnOff(bool turnType) public onlyAdmin {\r\n        turnOnOff = turnType;\r\n    }\r\n    //\r\n    function setTokenAllow(address[] memory allowToken) public onlyAdmin {\r\n        require(turnOnOff == false, \"0\");\r\n        for (uint i = 0; i < allowToken.length; i++) {\r\n            if (!tokenAllow[allowToken[i]]) {\r\n                tokenAllow[allowToken[i]] = true;\r\n            }\r\n        }\r\n    }\r\n\r\n    //RBTSEED\r\n    function seedSubscription(uint value, string memory tokenName, address token) public {\r\n\r\n        require(tokenAllow[token] == true, \"the token not allow\");\r\n        require(value > 0, \"input price error\");\r\n        require(isSubSeedsLeftNum - value >= 0, \"RBTSEED is not enough\");\r\n        require(token != address(0), \"token is not 0 address\");\r\n        //(,uint64 price) = getPrice(tokenName);\r\n        //uint rbtSeedAmount = value.mul(price * 10 ** 6).mul(1000).div(curRate);\r\n        uint rbtSeedAmount = value.mul(1000).div(curRate);\r\n        TransferHelper.safeTransferFrom(token, msg.sender, address(this), value);\r\n        TransferHelper.safeTransfer(_RBT_SEED, msg.sender, rbtSeedAmount);\r\n        account = account.sub((value.mul(1000)).div(curRate));\r\n        isSubSeedsLeftNum = isSubSeedsLeftNum.sub(value);\r\n        recordRbSeedSubscription memory recordrec = recordRbSeedSubscription({\r\n\r\n        curRate : curRate,\r\n        time : block.timestamp,\r\n        amount : value\r\n        });\r\n        RbSeedSubscriptionRecord[msg.sender].push(recordrec);\r\n        if (isSubSeedsLeftNum == 0) {\r\n            curRate = curRate.add(10);\r\n            isSubSeedsLeftNum = 1000000 * 10 ** 18;\r\n            totalAmount-=isSubSeedsLeftNum;\r\n        }\r\n        \r\n        emit PurchaseRecord(msg.sender, value, rbtSeedAmount, token);\r\n    }\r\n    //\r\n    function getRecordsLength() public view returns (uint){\r\n        return RbSeedSubscriptionRecord[msg.sender].length;\r\n    }\r\n\r\n\r\n\r\n}",
  "sourcePath": "/mnt/d/caihongdao/rainbowdao/RainbowDao-protocol/contracts/mining/RbSeedSubscription.sol",
  "compiler": {
    "name": "solc",
    "version": "0.8.0+commit.c7dfd78e.Emscripten.clang"
  },
  "schemaVersion": "3.4.1",
  "updatedAt": "2021-09-08T02:11:02.612Z",
  "networkType": "ethereum",
  "devdoc": {
    "kind": "dev",
    "methods": {},
    "version": 1
  },
  "userdoc": {
    "kind": "user",
    "methods": {},
    "version": 1
  }
}